{
  "_format": "hh-sol-artifact-1",
  "contractName": "Feedback",
  "sourceName": "contracts/Feedback.sol",
  "abi": [
    {
      "inputs": [],
      "stateMutability": "nonpayable",
      "type": "constructor"
    },
    {
      "anonymous": false,
      "inputs": [
        {
          "indexed": true,
          "internalType": "uint256",
          "name": "createdAt",
          "type": "uint256"
        },
        {
          "indexed": false,
          "internalType": "string",
          "name": "message",
          "type": "string"
        },
        {
          "indexed": false,
          "internalType": "string",
          "name": "user",
          "type": "string"
        },
        {
          "indexed": false,
          "internalType": "uint256",
          "name": "rate",
          "type": "uint256"
        }
      ],
      "name": "OnNewFeed",
      "type": "event"
    },
    {
      "inputs": [
        {
          "internalType": "uint256",
          "name": "_rate",
          "type": "uint256"
        },
        {
          "internalType": "string",
          "name": "_message",
          "type": "string"
        },
        {
          "internalType": "string",
          "name": "_user",
          "type": "string"
        }
      ],
      "name": "createFeed",
      "outputs": [],
      "stateMutability": "nonpayable",
      "type": "function"
    },
    {
      "inputs": [
        {
          "internalType": "uint256",
          "name": "",
          "type": "uint256"
        }
      ],
      "name": "feeds",
      "outputs": [
        {
          "internalType": "uint256",
          "name": "rate",
          "type": "uint256"
        },
        {
          "internalType": "uint256",
          "name": "id",
          "type": "uint256"
        },
        {
          "internalType": "uint256",
          "name": "createdAt",
          "type": "uint256"
        },
        {
          "internalType": "string",
          "name": "message",
          "type": "string"
        },
        {
          "internalType": "string",
          "name": "user",
          "type": "string"
        }
      ],
      "stateMutability": "view",
      "type": "function"
    },
    {
      "inputs": [],
      "name": "getAllFeeds",
      "outputs": [
        {
          "components": [
            {
              "internalType": "uint256",
              "name": "rate",
              "type": "uint256"
            },
            {
              "internalType": "uint256",
              "name": "id",
              "type": "uint256"
            },
            {
              "internalType": "uint256",
              "name": "createdAt",
              "type": "uint256"
            },
            {
              "internalType": "string",
              "name": "message",
              "type": "string"
            },
            {
              "internalType": "string",
              "name": "user",
              "type": "string"
            }
          ],
          "internalType": "struct Feedback.Feed[]",
          "name": "",
          "type": "tuple[]"
        }
      ],
      "stateMutability": "view",
      "type": "function"
    },
    {
      "inputs": [
        {
          "internalType": "uint256",
          "name": "_index",
          "type": "uint256"
        }
      ],
      "name": "getFeed",
      "outputs": [
        {
          "internalType": "uint256",
          "name": "rate",
          "type": "uint256"
        },
        {
          "internalType": "uint256",
          "name": "id",
          "type": "uint256"
        },
        {
          "internalType": "uint256",
          "name": "createdAt",
          "type": "uint256"
        },
        {
          "internalType": "string",
          "name": "message",
          "type": "string"
        },
        {
          "internalType": "string",
          "name": "user",
          "type": "string"
        }
      ],
      "stateMutability": "view",
      "type": "function"
    },
    {
      "inputs": [],
      "name": "getFeedsCount",
      "outputs": [
        {
          "internalType": "uint256",
          "name": "",
          "type": "uint256"
        }
      ],
      "stateMutability": "view",
      "type": "function"
    },
    {
      "inputs": [],
      "name": "owner",
      "outputs": [
        {
          "internalType": "address",
          "name": "",
          "type": "address"
        }
      ],
      "stateMutability": "view",
      "type": "function"
    }
  ],
  "bytecode": "0x60a060405234801561001057600080fd5b503373ffffffffffffffffffffffffffffffffffffffff1660808173ffffffffffffffffffffffffffffffffffffffff1660601b8152505060805160601c61101a610066600039600061044a015261101a6000f3fe608060405234801561001057600080fd5b50600436106100625760003560e01c806311372e421461006757806312876798146100855780634a5479f3146100a35780638da5cb5b146100d7578063dda4a5a6146100f5578063ecb76d9014610111575b600080fd5b61006f610145565b60405161007c9190610dfb565b60405180910390f35b61008d610151565b60405161009a9190610d30565b60405180910390f35b6100bd60048036038101906100b891906109ab565b6102f2565b6040516100ce959493929190610e16565b60405180910390f35b6100df610448565b6040516100ec9190610d15565b60405180910390f35b61010f600480360381019061010a91906109d4565b61046c565b005b61012b600480360381019061012691906109ab565b610613565b60405161013c959493929190610e16565b60405180910390f35b60008080549050905090565b60606000805480602002602001604051908101604052809291908181526020016000905b828210156102e957838290600052602060002090600502016040518060a00160405290816000820154815260200160018201548152602001600282015481526020016003820180546101c690610f5b565b80601f01602080910402602001604051908101604052809291908181526020018280546101f290610f5b565b801561023f5780601f106102145761010080835404028352916020019161023f565b820191906000526020600020905b81548152906001019060200180831161022257829003601f168201915b5050505050815260200160048201805461025890610f5b565b80601f016020809104026020016040519081016040528092919081815260200182805461028490610f5b565b80156102d15780601f106102a6576101008083540402835291602001916102d1565b820191906000526020600020905b8154815290600101906020018083116102b457829003601f168201915b50505050508152505081526020019060010190610175565b50505050905090565b6000818154811061030257600080fd5b906000526020600020906005020160009150905080600001549080600101549080600201549080600301805461033790610f5b565b80601f016020809104026020016040519081016040528092919081815260200182805461036390610f5b565b80156103b05780601f10610385576101008083540402835291602001916103b0565b820191906000526020600020905b81548152906001019060200180831161039357829003601f168201915b5050505050908060040180546103c590610f5b565b80601f01602080910402602001604051908101604052809291908181526020018280546103f190610f5b565b801561043e5780601f106104135761010080835404028352916020019161043e565b820191906000526020600020905b81548152906001019060200180831161042157829003601f168201915b5050505050905085565b7f000000000000000000000000000000000000000000000000000000000000000081565b84610476816107b4565b84846104828282610808565b848461048e8282610808565b60006040518060a001604052808c815260200160008054905081526020014281526020018b8b8080601f016020809104026020016040519081016040528093929190818152602001838380828437600081840152601f19601f82011690508083019250505050505050815260200189898080601f016020809104026020016040519081016040528093929190818152602001838380828437600081840152601f19601f82011690508083019250505050505050815250908060018154018082558091505060019003906000526020600020906005020160009091909190915060008201518160000155602082015181600101556040820151816002015560608201518160030190805190602001906105a79291906108a9565b5060808201518160040190805190602001906105c49291906108a9565b505050427fc097457d6e63bcb85174ea0c6f0e56f5b9d21a51bef003d0584d1b51a8b7d8848a8a8a8a8f6040516105ff959493929190610d52565b60405180910390a250505050505050505050565b60008060006060808561062581610852565b6000808881548110610660577f4e487b7100000000000000000000000000000000000000000000000000000000600052603260045260246000fd5b90600052602060002090600502019050806000015481600101548260020154836003018460040181805461069390610f5b565b80601f01602080910402602001604051908101604052809291908181526020018280546106bf90610f5b565b801561070c5780601f106106e15761010080835404028352916020019161070c565b820191906000526020600020905b8154815290600101906020018083116106ef57829003601f168201915b5050505050915080805461071f90610f5b565b80601f016020809104026020016040519081016040528092919081815260200182805461074b90610f5b565b80156107985780601f1061076d57610100808354040283529160200191610798565b820191906000526020600020905b81548152906001019060200180831161077b57829003601f168201915b5050505050905096509650965096509650505091939590929450565b600081101580156107c6575060058111155b610805576040517f08c379a00000000000000000000000000000000000000000000000000000000081526004016107fc90610ddb565b60405180910390fd5b50565b6000828290501161084e576040517f08c379a000000000000000000000000000000000000000000000000000000000815260040161084590610dbb565b60405180910390fd5b5050565b60008110158015610867575060008054905081105b6108a6576040517f08c379a000000000000000000000000000000000000000000000000000000000815260040161089d90610d9b565b60405180910390fd5b50565b8280546108b590610f5b565b90600052602060002090601f0160209004810192826108d7576000855561091e565b82601f106108f057805160ff191683800117855561091e565b8280016001018555821561091e579182015b8281111561091d578251825591602001919060010190610902565b5b50905061092b919061092f565b5090565b5b80821115610948576000816000905550600101610930565b5090565b60008083601f84011261095e57600080fd5b8235905067ffffffffffffffff81111561097757600080fd5b60208301915083600182028301111561098f57600080fd5b9250929050565b6000813590506109a581610fcd565b92915050565b6000602082840312156109bd57600080fd5b60006109cb84828501610996565b91505092915050565b6000806000806000606086880312156109ec57600080fd5b60006109fa88828901610996565b955050602086013567ffffffffffffffff811115610a1757600080fd5b610a238882890161094c565b9450945050604086013567ffffffffffffffff811115610a4257600080fd5b610a4e8882890161094c565b92509250509295509295909350565b6000610a698383610c7a565b905092915050565b610a7a81610edd565b82525050565b6000610a8b82610e87565b610a958185610eaa565b935083602082028501610aa785610e77565b8060005b85811015610ae35784840389528151610ac48582610a5d565b9450610acf83610e9d565b925060208a01995050600181019050610aab565b50829750879550505050505092915050565b6000610b018385610ecc565b9350610b0e838584610f19565b610b1783610fbc565b840190509392505050565b6000610b2d82610e92565b610b378185610ebb565b9350610b47818560208601610f28565b610b5081610fbc565b840191505092915050565b6000610b6682610e92565b610b708185610ecc565b9350610b80818560208601610f28565b610b8981610fbc565b840191505092915050565b6000610ba1602f83610ecc565b91507f5468697320696e646578206973206f757473696465206f662074686520626f7560008301527f6e64206f662074686520617272617900000000000000000000000000000000006020830152604082019050919050565b6000610c07601a83610ecc565b91507f54686520737472696e672063616e6e6f7420626520656d7074790000000000006000830152602082019050919050565b6000610c47602083610ecc565b91507f5468652072617465206d757374206265206265747765656e203020616e6420356000830152602082019050919050565b600060a083016000830151610c926000860182610cf7565b506020830151610ca56020860182610cf7565b506040830151610cb86040860182610cf7565b5060608301518482036060860152610cd08282610b22565b91505060808301518482036080860152610cea8282610b22565b9150508091505092915050565b610d0081610f0f565b82525050565b610d0f81610f0f565b82525050565b6000602082019050610d2a6000830184610a71565b92915050565b60006020820190508181036000830152610d4a8184610a80565b905092915050565b60006060820190508181036000830152610d6d818789610af5565b90508181036020830152610d82818587610af5565b9050610d916040830184610d06565b9695505050505050565b60006020820190508181036000830152610db481610b94565b9050919050565b60006020820190508181036000830152610dd481610bfa565b9050919050565b60006020820190508181036000830152610df481610c3a565b9050919050565b6000602082019050610e106000830184610d06565b92915050565b600060a082019050610e2b6000830188610d06565b610e386020830187610d06565b610e456040830186610d06565b8181036060830152610e578185610b5b565b90508181036080830152610e6b8184610b5b565b90509695505050505050565b6000819050602082019050919050565b600081519050919050565b600081519050919050565b6000602082019050919050565b600082825260208201905092915050565b600082825260208201905092915050565b600082825260208201905092915050565b6000610ee882610eef565b9050919050565b600073ffffffffffffffffffffffffffffffffffffffff82169050919050565b6000819050919050565b82818337600083830152505050565b60005b83811015610f46578082015181840152602081019050610f2b565b83811115610f55576000848401525b50505050565b60006002820490506001821680610f7357607f821691505b60208210811415610f8757610f86610f8d565b5b50919050565b7f4e487b7100000000000000000000000000000000000000000000000000000000600052602260045260246000fd5b6000601f19601f8301169050919050565b610fd681610f0f565b8114610fe157600080fd5b5056fea2646970667358221220cff14fad90d571034c8d23e3261c2ab6c700e337bc0ad0c4d0bc7eb83f452e6864736f6c63430008000033",
  "linkReferences": {},
  "deployedLinkReferences": {}
}